:020000040800F2
:1000000000000220C15D0008A15B0008AF5B000892
:10001000B55B0008BB5B0008C15B00080000000086
:100020000000000000000000000000001131000886
:10003000C75B00080000000061330008C9330008F6
:10004000115E0008115E0008115E0008115E0008D4
:10005000115E0008115E0008115E0008115E0008C4
:10006000115E0008115E0008115E0008115E0008B4
:10007000115E0008115E0008115E0008115E0008A4
:10008000115E0008D55B0008115E0008E95B0008FE
:10009000FD5B0008115C0008255C0008115E00088B
:1000A000115E0008395C0008115E0008115E00084E
:1000B000115E0008115E0008115E0008115E000864
:1000C000115E0008115E0008115E0008115E000854
:1000D000115E0008115E0008115E0008115E000844
:1000E000115E0008115E0008115E0008115E000834
:1000F000115E0008115E0008115E0008115E000824
:10010000115E0008115E0008115E0008115E000813
:10011000115E0008115E0008115E0008115E000803
:10012000115E0008115E0008115E0008115E0008F3
:10013000115E00080000000000000000115E0008D1
:10014000115E0008115E0008115E0008115E0008D3
:10015000115E0008115E0008115E0008115E0008C3
:10016000115E0008115E0008115E0008115E0008B3
:10017000115E0008115E0008115E0008000000001A
:1001800000000000115E00080000000000000000F8
:10019000115E00080000000000000000115E000871
:1001A000000000000000000000000000115E0008D8
:1001B000115E0008115E0008115E0008115E000863
:0401C000115E0008C4
:1001D00053B94AB9002908BF00281CBF4FF0FF31AE
:1001E0004FF0FF3000F00CB8ADF1080C6DE904CE13
:1001F00005F00FFEDDF804E0DDE9022304B07047EE
:10020000704700BF10B5054C227832B9044B13B1CA
:100210000448AFF300800123237010BD10000020BC
:10022000000000003061000808B5034B1BB1034912
:100230000348AFF3008008BD000000001400002058
:100240003061000880B500AF0E4B1B680D4A43F4C7
:10025000007313600B4B1B680A4A43F480631360FE
:10026000084B1B68074A43F480731360032000F0B7
:100270000CFC002005F03AFC05F00CFC00231846AD
:1002800080BD00BF003C024080B400AF064B1B782D
:100290001A46064B1B681344044A136000BFBD4650
:1002A0005DF8047B704700BF040000202C00002094
:1002B00080B400AF034B1B681846BD465DF8047B55
:1002C000704700BF2C00002080B584B000AF78607C
:1002D0007B68002B01D10123EDE07B6893F820308F
:1002E000DBB2002B02D1786805F004FA7B681B684A
:1002F0001A687B681B6822F002021A60FFF7D8FFB9
:10030000F86012E0FFF7D4FF0246FB68D31A0A2B0D
:100310000BD97B685B6A43F400327B685A627B6866
:10032000052283F820200123C5E07B681B685B68F9
:1003300003F00203002BE5D17B681B681A687B6819
:100340001B6842F001021A60FFF7B2FFF86012E08A
:10035000FFF7AEFF0246FB68D31A0A2B0BD97B6866
:100360005B6A43F400327B685A627B68052283F83B
:10037000202001239FE07B681B685B6803F001037A
:10038000002BE5D07B681B7E012B08D17B681B68A6
:100390001A687B681B6842F080021A6007E07B687D
:1003A0001B681A687B681B6822F080021A607B68F1
:1003B0005B7E012B08D17B681B681A687B681B6811
:1003C00042F040021A6007E07B681B681A687B688D
:1003D0001B6822F040021A607B689B7E012B08D1CB
:1003E0007B681B681A687B681B6842F020021A60F1
:1003F00007E07B681B681A687B681B6822F0200294
:100400001A607B68DB7E012B08D17B681B681A6849
:100410007B681B6822F010021A6007E07B681B688B
:100420001A687B681B6842F010021A607B681B7FA9
:10043000012B08D17B681B681A687B681B6842F037
:1004400008021A6007E07B681B681A687B681B68F3
:1004500022F008021A607B685B7F012B08D17B6861
:100460001B681A687B681B6842F004021A6007E088
:100470007B681B681A687B681B6822F004021A609C
:100480007B689A687B68DB681A437B681B691A4340
:100490007B685B6942EA03017B685B685A1E7B6884
:1004A0001B680A43DA617B6800225A627B6801227A
:1004B00083F82020002318461037BD4680BD80B544
:1004C0008AB000AF786000237B627B681B685B6941
:1004D0003B627B681B685B68FB617B681B689B6891
:1004E000BB617B681B68DB687B617B681B681B6981
:1004F0003B617B681B689B69FB603B6A03F00103FF
:10050000002B7CD0BB6903F00103002B23D07B6858
:100510001B6801229A60BB6903F00203002B03D021
:10052000786800F083F916E0BB6903F00403002B40
:1005300004D07B6A43F400637B620CE0BB6903F088
:100540000803002B04D07B6A43F480537B6202E0F3
:10055000786800F089F9BB6903F48073002B24D01C
:100560007B681B684FF480729A60BB6903F4007368
:10057000002B03D0786800F063F916E0BB6903F440
:100580008063002B04D07B6A43F400537B620CE051
:10059000BB6903F40063002B04D07B6A43F48043FF
:1005A0007B6202E0786800F069F9BB6903F480338C
:1005B000002B24D07B681B684FF480329A60BB69A3
:1005C00003F40033002B03D0786800F043F916E001
:1005D000BB6903F48023002B04D07B6A43F40043FF
:1005E0007B620CE0BB6903F40023002B04D07B6A20
:1005F00043F480337B6202E0786800F049F93B6A9B
:1006000003F00803002B0CD07B6903F01003002BD0
:1006100007D07B6A43F400737B627B681B681022FF
:10062000DA603B6A03F00403002B0BD07B6903F014
:100630000803002B06D07B681B680822DA60786804
:1006400000F03AF93B6A03F00203002B09D07B6803
:100650001B68DB6803F00303002B02D0786800F00E
:1006600021F93B6A03F04003002B0CD03B6903F0F7
:100670001003002B07D07B6A43F480637B627B68A6
:100680001B6810221A613B6A03F02003002B0BD079
:100690003B6903F00803002B06D07B681B68082227
:1006A0001A61786800F01CF93B6A03F01003002B14
:1006B00009D07B681B681B6903F00303002B02D081
:1006C000786800F003F93B6A03F40033002B0BD089
:1006D000FB6903F01003002B06D07B681B68102217
:1006E0005A60786800F006F93B6A03F48033002B07
:1006F0000BD0FB6903F00803002B06D07B681B6856
:1007000008225A60786800F0FFF83B6A03F400435F
:10071000002B7BD0FB6903F00403002B72D03B6AF3
:1007200003F48073002B08D0FB6803F00103002B57
:1007300003D07B6A43F001037B623B6A03F40073DE
:10074000002B08D0FB6803F00203002B03D07B6A68
:1007500043F002037B623B6A03F48063002B08D002
:10076000FB6803F00403002B03D07B6A43F004030F
:100770007B623B6A03F40063002B43D0FB6803F009
:100780007003002B3ED0FB6803F07003602B2BD06E
:10079000602B2ED8502B22D0502B2AD8402B19D08A
:1007A000402B26D8302B10D0302B22D8102B02D043
:1007B000202B05D01DE07B6A43F008037B6219E023
:1007C0007B6A43F010037B6214E07B6A43F02003F2
:1007D0007B620FE07B6A43F040037B620AE07B6A46
:1007E00043F080037B6205E07B6A43F480737B62A5
:1007F00000E000BF7B681B689A697B681B6822F079
:1008000070029A617B681B6804225A607B6A002B25
:1008100008D07B685A6A7B6A1A437B685A62786898
:1008200000F07CF800BF2837BD4680BD80B483B09F
:1008300000AF786000BF0C37BD465DF8047B7047A1
:1008400080B483B000AF786000BF0C37BD465DF860
:10085000047B704780B483B000AF786000BF0C3772
:10086000BD465DF8047B704780B483B000AF78600C
:1008700000BF0C37BD465DF8047B704780B483B081
:1008800000AF786000BF0C37BD465DF8047B704751
:1008900080B483B000AF786000BF0C37BD465DF810
:1008A000047B704780B483B000AF786000BF0C3722
:1008B000BD465DF8047B704780B483B000AF7860BC
:1008C00000BF0C37BD465DF8047B704780B483B031
:1008D00000AF786000BF0C37BD465DF8047B704701
:1008E00080B483B000AF786000BF0C37BD465DF8C0
:1008F000047B704780B483B000AF786000BF0C37D2
:10090000BD465DF8047B704780B483B000AF78606B
:1009100000BF0C37BD465DF8047B704780B483B0E0
:1009200000AF786000BF0C37BD465DF8047B7047B0
:1009300080B485B000AF78607B6803F00703FB608C
:100940000C4BDB68BB60BA684FF6FF031340BB601B
:10095000FB681A02BB68134343F0BF6343F40033E0
:10096000BB60044ABB68D36000BF1437BD465DF866
:10097000047B704700ED00E080B400AF044BDB68FF
:100980001B0A03F007031846BD465DF8047B704759
:1009900000ED00E080B483B000AF0346FB7197F92F
:1009A0000730002B0BDBFB7903F01F02074997F997
:1009B00007305B09012000FA02F241F8232000BF52
:1009C0000C37BD465DF8047B704700BF00E100E0D6
:1009D00080B483B000AF03463960FB7197F90730EC
:1009E000002B0ADB3B68DAB20C4997F90730120199
:1009F000D2B20B4483F800230AE03B68DAB208491C
:100A0000FB7903F00F03043B1201D2B20B441A76B8
:100A100000BF0C37BD465DF8047B704700E100E085
:100A200000ED00E080B489B000AFF860B9607A6092
:100A3000FB6803F00703FB61FB69C3F10703042BA9
:100A400028BF0423BB61FB690433062B02D9FB6971
:100A5000033B00E000237B614FF0FF32BB6902FAE9
:100A600003F3DA43BB681A407B699A404FF0FF31C9
:100A70007B6901FA03F3D9437B680B4013431846A3
:100A80002437BD465DF8047B704780B582B000AF67
:100A900078607868FFF74CFF00BF0837BD4680BD1F
:100AA00080B586B000AF0346B9607A60FB7300235F
:100AB0007B61FFF761FF78617A68B9687869FFF751
:100AC000B1FF024697F90F3011461846FFF780FF35
:100AD00000BF1837BD4680BD80B582B000AF034669
:100AE000FB7197F907301846FFF754FF00BF08372E
:100AF000BD4680BD80B586B000AF786000237B61C5
:100B0000FFF7D6FB38617B68002B01D1012399E008
:100B10007B68002283F834207B68022283F835202A
:100B20007B681B681A687B681B6822F001021A60E8
:100B30000FE0FFF7BDFB02463B69D31A052B08D92E
:100B40007B6820225A657B68032283F835200323C3
:100B500078E07B681B681B6803F00103002BE8D179
:100B60007B681B681B687B617A69384B13407B612B
:100B70007B685A687B689B681A437B68DB681A430A
:100B80007B681B691A437B685B691A437B689B69B6
:100B90001A437B68DB691A437B681B6A13437A69D3
:100BA00013437B617B685B6A042B07D17B68DA6A3D
:100BB0007B681B6B13437A6913437B617B681B68FB
:100BC0007A691A607B681B685B697B617B6923F0CB
:100BD00007037B617B685B6A7A6913437B617B688F
:100BE0005B6A042B17D17B689B6A7A6913437B612C
:100BF0007B68DB6A002B0ED0786800F0E9F90346C9
:100C0000002B08D07B6840225A657B68012283F85C
:100C10003520012316E07B681B687A695A61786881
:100C200000F0A0F90346FB607B68DB6D3F229A4031
:100C3000FB689A607B6800225A657B68012283F812
:100C40003520002318461837BD4680BD3F8010F080
:100C500080B586B000AF78600023BB60924B1B6804
:100C6000924AA2FB03239B0A7B617B689B6D3B61DD
:100C70003B691B68FB607B68DB6D08229A40FB6860
:100C80001340002B1AD07B681B681B6803F0040319
:100C9000002B13D07B681B681A687B681B6822F0E6
:100CA00004021A607B68DB6D08229A403B699A60F7
:100CB0007B685B6D43F001027B685A657B68DB6D86
:100CC00001229A40FB681340002B12D07B681B68FE
:100CD0005B6903F08003002B0BD07B68DB6D012286
:100CE0009A403B699A607B685B6D43F002027B68C7
:100CF0005A657B68DB6D04229A40FB681340002B29
:100D000012D07B681B681B6803F00203002B0BD01A
:100D10007B68DB6D04229A403B699A607B685B6D5F
:100D200043F004027B685A657B68DB6D10229A40B1
:100D3000FB681340002B43D07B681B681B6803F0E3
:100D40000803002B3CD07B68DB6D10229A403B6986
:100D50009A607B681B681B6803F48023002B18D003
:100D60007B681B681B6803F40023002B08D17B6899
:100D70001B6C002B24D07B681B6C786898471FE0A5
:100D80007B689B6C002B1BD07B689B6C78689847BA
:100D900016E07B681B681B6803F48073002B07D187
:100DA0007B681B681A687B681B6822F008021A605F
:100DB0007B681B6C002B03D07B681B6C78689847A2
:100DC0007B68DB6D20229A40FB681340002B00F00B
:100DD0008E807B681B681B6803F01003002B00F0FB
:100DE00086807B68DB6D20229A403B699A607B6835
:100DF00093F83530DBB2052B36D17B681B681A6857
:100E00007B681B6822F016021A607B681B685A69AF
:100E10007B681B6822F080025A617B681B6C002B88
:100E200003D17B689B6C002B07D07B681B681A681A
:100E30007B681B6822F008021A607B68DB6D3F222A
:100E40009A403B699A607B68002283F834207B6873
:100E5000012283F835207B681B6D002B7DD07B68D9
:100E60001B6D7868984778E07B681B681B6803F403
:100E70008023002B1CD07B681B681B6803F40023B5
:100E8000002B08D17B685B6C002B30D07B685B6CDF
:100E9000786898472BE07B68DB6B002B27D07B685A
:100EA000DB6B7868984722E00C000020B5814E1B70
:100EB0007B681B681B6803F48073002B0FD17B6871
:100EC0001B681A687B681B6822F010021A607B6836
:100ED000002283F834207B68012283F835207B6868
:100EE000DB6B002B03D07B68DB6B786898477B68F3
:100EF0005B6D002B32D07B685B6D03F00103002B30
:100F000022D07B68052283F835207B681B681A682D
:100F10007B681B6822F001021A60BB680133BB606A
:100F20007A699A4207D37B681B681B6803F0010348
:100F3000002BF2D100E000BF7B68002283F8342050
:100F40007B68012283F835207B68DB6C002B05D0A1
:100F50007B68DB6C7868984700E000BF1837BD46B7
:100F600080BD00BF80B485B000AF78607B681B682F
:100F7000DBB2103B144AA2FB03231B09FB60134A9C
:100F8000FB6813441B781A467B68DA65FB68032B01
:100F900009D97B681B6823F47F7323F003031A1DB0
:100FA0007B689A6507E07B681B6823F47F7323F0F6
:100FB00003037A6893657B689B6D18461437BD46BA
:100FC0005DF8047B704700BFABAAAAAA7461000851
:100FD00080B485B000AF78600023FB737B689B6AA8
:100FE000BB607B689B69002B1FD1BB68032B56D865
:100FF00001A252F823F000BF091000081B100008DE
:10100000091000089F1000087B68DB6A03F08073FA
:10101000002B46D00123FB7343E07B68DB6AB3F10E
:10102000C07F40D10123FB733DE07B689B69B3F532
:10103000005F21D1BB68032B37D801A252F823F0FF
:1010400051100008571000085110000869100008DE
:101050000123FB7330E07B68DB6A03F08073002BB5
:1010600025D00123FB7322E07B68DB6AB3F1C07FEC
:101070001FD10123FB731CE0BB68022B03D9BB68A3
:10108000032B03D018E00123FB7315E07B68DB6AB8
:1010900003F08073002B0ED00123FB730BE000BF25
:1010A0000AE000BF08E000BF06E000BF04E000BFA8
:1010B00002E000BF00E000BFFB7B18461437BD46CE
:1010C0005DF8047B704700BF80B489B000AF7860E2
:1010D000396000237B6100233B610023BB61002357
:1010E000FB6165E10122FB6902FA03F37B613B6866
:1010F0001B687A6913403B613A697B699A4240F008
:1011000054813B685B68012B0BD03B685B68022B0A
:1011100007D03B685B68112B03D03B685B68122BE0
:1011200030D17B689B68BB61FB695B00032202FADC
:1011300003F3DB43BA691340BB613B68DA68FB69C0
:101140005B0002FA03F3BA691343BB617B68BA69B7
:101150009A607B685B68BB610122FB6902FA03F35A
:10116000DB43BA691340BB613B685B681B0903F052
:101170000102FB6902FA03F3BA691343BB617B689E
:10118000BA695A607B68DB68BB61FB695B0003225C
:1011900002FA03F3DB43BA691340BB613B689A6808
:1011A000FB695B0002FA03F3BA691343BB617B6816
:1011B000BA69DA603B685B68022B03D03B685B6806
:1011C000122B23D1FB69DA087B68083253F82230EE
:1011D000BB61FB6903F007039B000F2202FA03F3D4
:1011E000DB43BA691340BB613B681A69FB6903F0D2
:1011F00007039B0002FA03F3BA691343BB61FB695F
:10120000DA087B680832B96943F822107B681B68EA
:10121000BB61FB695B00032202FA03F3DB43BA699B
:101220001340BB613B685B6803F00302FB695B0032
:1012300002FA03F3BA691343BB617B68BA691A60A7
:101240003B685B6803F08053002B00F0AE80002306
:10125000FB605D4B5B6C5C4A43F4804353645A4BC8
:101260005B6C03F48043FB60FB68584AFB699B0896
:10127000023352F82330BB61FB6903F003039B0088
:101280000F2202FA03F3DB43BA691340BB617B68A8
:101290004F4A934225D07B684E4A93421FD07B68C9
:1012A0004D4A934219D07B684C4A934213D07B68D5
:1012B0004B4A93420DD07B684A4A934207D07B68E1
:1012C000494A934201D106230CE007230AE0052393
:1012D00008E0042306E0032304E0022302E00123E4
:1012E00000E00023FA6902F0030292009340BA6919
:1012F0001343BB613549FB699B080233BA6941F866
:1013000023203A4B1B68BB613B69DB43BA6913403E
:10131000BB613B685B6803F48033002B03D0BA6980
:101320003B691343BB61314ABB6913602F4B5B6858
:10133000BB613B69DB43BA691340BB613B685B68D7
:1013400003F40033002B03D0BA693B691343BB613C
:10135000264ABB695360254B9B68BB613B69DB43F5
:10136000BA691340BB613B685B6803F48013002BD0
:1013700003D0BA693B691343BB611C4ABB699360E4
:101380001A4BDB68BB613B69DB43BA691340BB6145
:101390003B685B6803F40013002B03D0BA693B6918
:1013A0001343BB61114ABB69D360FB690133FB6125
:1013B000FB690F2B7FF696AE00BF00BF2437BD46FA
:1013C0005DF8047B704700BF0038024000380140E0
:1013D000000002400004024000080240000C0240ED
:1013E000001002400014024000180240003C01407E
:1013F00080B483B000AF78600B467B8013467B706F
:101400007B78002B03D07A887B689A6103E07B8825
:101410001A047B689A6100BF0C37BD465DF8047BF7
:10142000704780B483B000AF78600B467B807B68E8
:101430005A697B881A407B889A4204D17B881A04B7
:101440007B689A6102E07A887B689A6100BF0C37FA
:10145000BD465DF8047B704780B582B000AF0023C5
:101460007B6000233B60204B1B6C1F4A43F0805382
:1014700013641D4B1B6C03F080533B603B681B4B9C
:1014800001221A60FEF714FF786009E0FEF710FFF2
:1014900002467B68D31AB3F57A7F01D903231FE094
:1014A000134B5B6803F48033B3F5803FEED1114BEF
:1014B00001221A60FEF7FCFE786009E0FEF7F8FEF4
:1014C00002467B68D31AB3F57A7F01D9032307E07C
:1014D000074B5B6803F40033B3F5003FEED1002304
:1014E00018460837BD4680BD0038024040000E4215
:1014F0000070004044000E4280B584B000AF7860B8
:1015000039607B68002B01D10123CCE0684B1B685C
:1015100003F00F033A689A420CD9654B3A68D2B28D
:101520001A70634B1B6803F00F033A689A4201D0AC
:101530000123B8E07B681B6803F00203002B20D076
:101540007B681B6803F00403002B05D0594B9B6894
:10155000584A43F4E05393607B681B6803F0080328
:10156000002B05D0534B9B68524A43F46043936071
:10157000504B9B6823F0F0027B689B684D491343F6
:101580008B607B681B6803F00103002B44D07B68F1
:101590005B68012B07D1474B1B6803F40033002B1A
:1015A00019D101237FE07B685B68022B03D07B6845
:1015B0005B68032B07D13F4B1B6803F00073002BC4
:1015C00009D101236FE03B4B1B6803F00203002BA2
:1015D00001D1012367E0374B9B6823F003027B684E
:1015E0005B68344913438B60FEF762FEF8600AE0E3
:1015F000FEF75EFE0246FB68D31A41F28832934240
:1016000001D903234FE02B4B9B6803F00C027B684E
:101610005B689B009A42EBD1254B1B6803F00F03DC
:101620003A689A420CD2224B3A68D2B21A70204BD6
:101630001B6803F00F033A689A4201D0012332E09D
:101640007B681B6803F00403002B08D0194B9B68D0
:1016500023F4E0527B68DB68164913438B607B6898
:101660001B6803F00803002B09D0124B9B6823F47E
:1016700060427B681B69DB000E4913438B6000F0FE
:1016800087F802460B4B9B681B0903F00F030A49BE
:10169000CB5C22FA03F3094A1360094B1B68184616
:1016A00004F024FA002318461037BD4680BD00BF61
:1016B000003C0240003802407C6100080C00002021
:1016C0000000002080B400AF034B1B681846BD46E5
:1016D0005DF8047B704700BF0C00002080B500AFB0
:1016E000FFF7F0FF0246054B9B689B0A03F00703D8
:1016F0000349CB5C22FA03F3184680BD0038024050
:101700008C61000880B500AFFFF7DCFF0246054B97
:101710009B685B0B03F007030349CB5C22FA03F3DE
:10172000184680BD003802408C61000880B483B048
:1017300000AF786039607B680F221A60124B9B689B
:1017400003F003027B685A600F4B9B6803F0F002C2
:101750007B689A600C4B9B6803F4E0527B68DA600C
:10176000094B9B68DB0803F4E0527B681A61074B66
:101770001B6803F00F023B681A6000BF0C37BD46C0
:101780005DF8047B704700BF00380240003C024017
:101790002DE9B04F88B000AF00237B610023FB61CF
:1017A00000233B610023FB600023BB61CE4B9B68A1
:1017B00003F00C030C2B00F28D8101A252F823F0F0
:1017C000F5170008D51A0008D51A0008D51A000820
:1017D000FB170008D51A0008D51A0008D51A00080A
:1017E00001180008D51A0008D51A0008D51A0008F3
:1017F00075190008BD4BBB616FE1BD4BBB616CE16E
:10180000B94B5B6803F03F037B61B74B5B6803F444
:101810008003002B53D0B44B5B689B091A464FF0F2
:10182000000340F2FF104FF0000102EA00043C60A8
:101830000B407B60D7E90045204629464FF0000267
:101840004FF000034B0143EAD063420110461946B2
:101850002346C01A2B4661EB03014FF000024FF004
:1018600000038B0143EA90638201121A63EB0103C8
:101870004FF000004FF00001D90041EA5271D00052
:1018800002460B4621465218294643EB01010B46FE
:101890004FF000004FF00001590241EAD2515002CE
:1018A00002460B46104619467B691A464FF0000364
:1018B000FEF78EFC02460B461346FB614CE08A4B5A
:1018C0005B689B091A464FF0000340F2FF104FF08F
:1018D000000102EA000A03EA010B504659464FF0A4
:1018E00000024FF000034B0143EAD063420110466F
:1018F0001946B0EB0A0061EB0B014FF000024FF00C
:1019000000038B0143EA90638201121A63EB010327
:101910004FF000004FF00001D90041EA5271D000B1
:1019200002460B4612EB0A0243EB0B034FF000009A
:101930004FF00001990241EA9251900202460B4693
:10194000104619467B691A464FF00003FEF740FC2B
:1019500002460B461346FB61634B5B681B0C03F0AE
:10196000030301335B003B61FA693B69B2FBF3F3AC
:10197000BB61B2E05C4B5B6803F03F037B615A4B99
:101980005B6803F48003002B4DD0574B5B689B09C9
:101990001A464FF0000340F2FF104FF0000102EA38
:1019A000000803EA0109404649464FF000024FF0A3
:1019B00000034B0143EAD063420110461946B0EBE5
:1019C000080061EB09014FF000024FF000038B01AA
:1019D00043EA90638201121A63EB01034FF00000A7
:1019E0004FF00001D90041EA5271D00002460B4687
:1019F00012EB080243EB09034FF000004FF0000127
:101A0000590241EAD251500202460B46104619468D
:101A10007B691A464FF00003FEF7DAFB02460B46DD
:101A20001346FB614AE0304B5B689B091A464FF056
:101A3000000340F2FF104FF0000102EA000403EA45
:101A40000105204629464FF000024FF000034B01EC
:101A500043EAD063420110461946001B61EB0501C1
:101A60004FF000024FF000038B0143EA90638201C4
:101A7000121A63EB01034FF000004FF00001D90090
:101A800041EA5271D00002460B46121945EB03039E
:101A90004FF000004FF00001990241EA925190028C
:101AA00002460B46104619467B691A464FF0000362
:101AB000FEF78EFB02460B461346FB610A4B5B6842
:101AC0001B0F03F00703FB60FA69FB68B2FBF3F33B
:101AD000BB6102E0054BBB6100BFBB691846203704
:101AE000BD46BDE8B08F00BF003802400024F400BE
:101AF00000127A0080B586B000AF786000233B61A9
:101B00007B681B6803F00103002B00F08380954B7A
:101B10009B6803F00C03042B19D0924B9B6803F0D5
:101B20000C03082B06D18F4B5B6803F48003B3F5DD
:101B3000800F0CD08B4B9B6803F00C030C2B12D145
:101B4000884B5B6803F48003B3F5800F0BD1854BA2
:101B50001B6803F40033002B5BD07B685B68002BB1
:101B600057D1012316E27B685B68B3F5803F06D14D
:101B70007C4B1B687B4A43F4803313601DE07B6819
:101B80005B68B3F5A02F0CD1764B1B68754A43F404
:101B900080231360734B1B68724A43F480331360D5
:101BA0000BE0704B1B686F4A23F4803313606D4B5E
:101BB0001B686C4A23F4802313607B685B68002BEE
:101BC00013D0FEF775FB386108E0FEF771FB0246A3
:101BD0003B69D31A642B01D90323DBE1614B1B68FA
:101BE00003F40033002BF0D014E0FEF761FB386102
:101BF00008E0FEF75DFB02463B69D31A642B01D96E
:101C00000323C7E1574B1B6803F40033002BF0D1CB
:101C100000E000BF7B681B6803F00203002B6FD05D
:101C2000504B9B6803F00C03002B17D04D4B9B6867
:101C300003F00C03082B05D14A4B5B6803F48003C7
:101C4000002B0BD0474B9B6803F00C030C2B1CD1D3
:101C5000444B5B6803F48003002B16D1414B1B6897
:101C600003F00203002B05D07B68DB68012B01D059
:101C700001238FE13B4B1B6823F0F8027B681B6953
:101C8000DB00384913430B603AE07B68DB68002BCC
:101C900020D0354B01221A60FEF70AFB386108E0BC
:101CA000FEF706FB02463B69D31A022B01D9032338
:101CB00070E12C4B1B6803F00203002BF0D0294B82
:101CC0001B6823F0F8027B681B69DB00254913437E
:101CD0000B6015E0244B00221A60FEF7E9FA386128
:101CE00008E0FEF7E5FA02463B69D31A022B01D958
:101CF00003234FE11B4B1B6803F00203002BF0D1C1
:101D00007B681B6803F00803002B37D07B685B6996
:101D1000002B16D0154B01221A60FEF7C9FA386164
:101D200008E0FEF7C5FA02463B69D31A022B01D937
:101D300003232FE10B4B5B6F03F00203002BF0D06A
:101D40001CE00A4B00221A60FEF7B2FA38610FE07D
:101D5000FEF7AEFA02463B69D31A022B08D90323D9
:101D600018E100BF0038024000004742800E4742A1
:101D70008A4B5B6F03F00203002BE9D17B681B6881
:101D800003F00403002B00F097800023FB75834BC6
:101D90001B6C03F08053002B0FD10023FB607F4BA3
:101DA0001B6C7E4A43F0805313647C4B1B6C03F026
:101DB0008053FB60FB680123FB75794B1B6803F4C0
:101DC0008073002B18D1764B1B68754A43F48073DF
:101DD0001360FEF76DFA386108E0FEF769FA024613
:101DE0003B69D31A022B01D90323D3E06C4B1B6848
:101DF00003F48073002BF0D07B689B68012B06D125
:101E0000664B1B6F654A43F0010313671CE07B6858
:101E10009B68052B0CD1614B1B6F604A43F0040398
:101E200013675E4B1B6F5D4A43F0010313670BE0C2
:101E30005A4B1B6F594A23F001031367574B1B6F13
:101E4000564A23F0040313677B689B68002B15D068
:101E5000FEF72EFA38610AE0FEF72AFA02463B69DD
:101E6000D31A41F28832934201D9032392E04B4BBB
:101E70001B6F03F00203002BEED014E0FEF718FAFC
:101E800038610AE0FEF714FA02463B69D31A41F2C0
:101E90008832934201D903237CE0404B1B6F03F04F
:101EA0000203002BEED1FB7D012B05D13B4B1B6CBC
:101EB0003A4A23F0805313647B689B69002B68D0F7
:101EC000364B9B6803F00C03082B60D07B689B6942
:101ED000022B45D1334B00221A60FEF7E9F9386135
:101EE00008E0FEF7E5F902463B69D31A022B01D957
:101EF00003234FE0294B1B6803F00073002BF0D144
:101F00007B68DA697B681B6A1A437B685B6A9B01A2
:101F10001A437B689B6A5B08013B1B041A437B687E
:101F2000DB6A1B061A437B681B6B1B071B491343A9
:101F30004B601C4B01221A60FEF7BAF9386108E0C9
:101F4000FEF7B6F902463B69D31A022B01D90323E7
:101F500020E0124B1B6803F00073002BF0D018E058
:101F6000104B00221A60FEF7A3F9386108E0FEF773
:101F70009FF902463B69D31A022B01D9032309E0DA
:101F8000064B1B6803F00073002BF0D101E0012326
:101F900000E0002318461837BD4680BD00380240D7
:101FA000007000406000474280B582B000AF7860AA
:101FB0007B68002B01D101231DE07B6893F83D3045
:101FC000DBB2002B06D17B68002283F83C207868C6
:101FD00000F015F87B68022283F83D207B681A68C0
:101FE0007B6804331946104600F068F97B680122CB
:101FF00083F83D20002318460837BD4680BD80B4D5
:1020000083B000AF786000BF0C37BD465DF8047B3D
:10201000704780B485B000AF78607B681B68DA6871
:102020007B681B6842F00102DA607B681B689B6872
:1020300003F00703FB60FB68062B07D07B681B6877
:102040001A687B681B6842F001021A600023184678
:102050001437BD465DF8047B704780B582B000AF91
:1020600078607B681B681B6903F00203022B22D196
:102070007B681B68DB6803F00203022B1BD17B68C3
:102080001B686FF002021A617B6801221A777B6875
:102090001B689B6903F00303002B03D0786800F0F2
:1020A000EEF805E0786800F0E0F8786800F0F1F804
:1020B0007B6800221A777B681B681B6903F00403A6
:1020C000042B22D17B681B68DB6803F00403042B1C
:1020D0001BD17B681B686FF004021A617B680222C7
:1020E0001A777B681B689B6903F44073002B03D04D
:1020F000786800F0C4F805E0786800F0B6F8786811
:1021000000F0C7F87B6800221A777B681B681B69A0
:1021100003F00803082B22D17B681B68DB6803F0FF
:102120000803082B1BD17B681B686FF008021A613B
:102130007B6804221A777B681B68DB6903F0030362
:10214000002B03D0786800F09AF805E0786800F07A
:102150008CF8786800F09DF87B6800221A777B681D
:102160001B681B6903F01003102B22D17B681B68CE
:10217000DB6803F01003102B1BD17B681B686FF02A
:1021800010021A617B6808221A777B681B68DB697A
:1021900003F44073002B03D0786800F070F805E07A
:1021A000786800F062F8786800F073F87B680022C5
:1021B0001A777B681B681B6903F00103012B0ED1A2
:1021C0007B681B68DB6803F00103012B07D17B6888
:1021D0001B686FF001021A61786803F041FC7B68AC
:1021E0001B681B6903F08003802B0ED17B681B6882
:1021F000DB6803F08003802B07D17B681B686FF0DE
:1022000080021A61786800F003F97B681B681B691B
:1022100003F04003402B0ED17B681B68DB6803F0A2
:102220004003402B07D17B681B686FF040021A61A6
:10223000786800F038F87B681B681B6903F020039E
:10224000202B0ED17B681B68DB6803F02003202B5A
:1022500007D17B681B686FF020021A61786800F074
:10226000CDF800BF0837BD4680BD80B483B000AF55
:10227000786000BF0C37BD465DF8047B704780B4C2
:1022800083B000AF786000BF0C37BD465DF8047BBB
:10229000704780B483B000AF786000BF0C37BD4694
:1022A0005DF8047B704780B483B000AF786000BFF6
:1022B0000C37BD465DF8047B7047000080B485B0E4
:1022C00000AF786039607B681B68FB607B68404AC0
:1022D000934213D07B68B3F1804F0FD07B683D4AA7
:1022E00093420BD07B683C4A934207D07B683B4AC1
:1022F000934203D07B683A4A934208D1FB6823F0AB
:102300007003FB603B685B68FA681343FB607B68A3
:102310002F4A93422BD07B68B3F1804F27D07B6844
:102320002C4A934223D07B682B4A93421FD07B6870
:102330002A4A93421BD07B68294A934217D07B6874
:10234000284A934213D07B68274A93420FD07B6878
:10235000264A93420BD07B68254A934207D07B687C
:10236000244A934203D07B68234A934208D1FB68F6
:1023700023F44073FB603B68DB68FA681343FB603F
:10238000FB6823F080023B685B691343FB607B685A
:10239000FA681A603B689A687B68DA623B681A6878
:1023A0007B689A627B680A4A934203D07B680C4A36
:1023B000934203D13B681A697B681A637B680122E8
:1023C0005A6100BF1437BD465DF8047B704700BFFB
:1023D000000001400004004000080040000C0040E4
:1023E0000004014000400140004401400048014019
:1023F00000180040001C00400020004080B483B062
:1024000000AF786000BF0C37BD465DF8047B7047B5
:1024100080B483B000AF786000BF0C37BD465DF874
:10242000047B704780B582B000AF78607B68002B7A
:1024300001D101233FE07B6893F83930DBB2002BF8
:1024400006D17B68002283F83820786803F03EFCD0
:102450007B68242283F839207B681B68DA687B68F4
:102460001B6822F40052DA60786800F029F87B6873
:102470001B681A697B681B6822F490421A617B68AA
:102480001B685A697B681B6822F02A025A617B68C4
:102490001B68DA687B681B6842F40052DA607B686C
:1024A0000022DA637B68202283F839207B682022AF
:1024B00083F83A20002318460837BD4680BD000047
:1024C0002DE9F04FBDB000AFC7F8E400D7F8E43015
:1024D0001B681B6923F44050D7F8E430D968D7F85B
:1024E000E4301A6840EA01031361D7F8E4309A68CF
:1024F000D7F8E4301B691A43D7F8E4305B691A4314
:10250000D7F8E430DB691343C7F8EC30D7F8E43090
:102510001B68DB6823F4164121F00C01D7F8E43086
:102520001A68D7F8EC300B43D360D7F8E4301B6857
:102530005B6923F44070D7F8E4309969D7F8E43048
:102540001A6840EA01035361D7F8E430DB69B3F558
:10255000004F40F0A581D7F8E4301A68CD4B9A427D
:1025600006D0D7F8E4301A68CB4B9A4240F0CB80C3
:10257000FFF7C8F8C7F8E800D7F8E8301C464FF076
:10258000000522462B469118C7F888105B41C7F812
:102590008C30D7E92223121945EB03034FF00000DA
:1025A0004FF00001D90041EA5271D00002460B46BB
:1025B0001119C7F8D8106B41C7F8DC30D7F8E430F0
:1025C0005B681A464FF000039118C7F880105B4112
:1025D000C7F88430D7E92023D7E93601FDF7F8FDA5
:1025E00002460B46AD4BA3FB02235B091E01D7F845
:1025F000E8301C464FF0000522462B469118B9677B
:102600005B41FB67D7E91E23121945EB03034FF02B
:1026100000004FF00001D90041EA5271D00002469B
:102620000B461119C7F8D0106B41C7F8D430D7F852
:10263000E4305B681A464FF00003911839675B413C
:102640007B67D7E91C23D7E93401FDF7C1FD0246BA
:102650000B46924BA3FB02135B09642101FB03F3BE
:10266000D31ADB0032338D4AA2FB03235B095B00E4
:1026700003F4F8731E44D7F8E83018464FF0000111
:1026800002460B469418BC665B41FB66D7E91A23E9
:10269000121841EB03034FF000044FF00005DD007A
:1026A00045EA5275D40022462B461418C7F8C84094
:1026B0004B41C7F8CC30D7F8E4305B681A464FF08E
:1026C0000003911839665B417B66D7E91823D7E987
:1026D0003201FDF77DFD02460B46704BA3FB021352
:1026E0005B09642101FB03F3D31ADB0032336B4A2D
:1026F000A2FB03235B0903F00702D7F8E4301B6851
:1027000032449A606DE2FEF7E9FFC7F8E800D7F8B7
:10271000E8301C464FF0000522462B469118B9655B
:102720005B41FB65D7E91623121945EB03034FF014
:1027300000004FF00001D90041EA5271D00002467A
:102740000B461119C7F8C0106B41C7F8C430D7F851
:10275000E4305B681A464FF00003911839655B411D
:102760007B65D7E91423D7E93001FDF731FD024637
:102770000B464A4BA3FB02235B091E01D7F8E83046
:102780001C464FF0000522462B469118B9645B4168
:10279000FB64D7E91223121945EB03034FF0000045
:1027A0004FF00001D90041EA5271D00002460B46B9
:1027B0001119C7F8B8106B41C7F8BC30D7F8E4302E
:1027C0005B681A464FF00003911839645B417B64E3
:1027D000D7E91023D7E92E01FDF7FAFC02460B4694
:1027E0002E4BA3FB02135B09642101FB03F3D31AF5
:1027F000DB003233294AA2FB03235B095B0003F4AD
:10280000F8731E44D7F8E83018464FF0000102462E
:102810000B469418BC635B41FB63D7E90E23121887
:1028200041EB03034FF000044FF00005DD0045EAE3
:102830005275D40022462B461418C7F8B0404B41BD
:10284000C7F8B430D7F8E4305B681A464FF000039D
:10285000911839635B417B63D7E90C23D7E92C01DD
:10286000FDF7B6FC02460B460C4BA3FB02135B09BB
:10287000642101FB03F3D31ADB003233074AA2FBC6
:1028800003235B0903F00702D7F8E4301B683244E6
:102890009A60A6E100100140001401401F85EB5131
:1028A000D7F8E4301A68D14B9A4206D0D7F8E43012
:1028B0001A68CF4B9A4240F0CA80FEF723FFC7F850
:1028C000E800D7F8E8301C464FF0000522462B46BA
:1028D0009118B9625B41FB62D7E90A23121945EBF3
:1028E00003034FF000004FF00001D90041EA52719C
:1028F000D00002460B4612EB040A43EB050BD7F857
:10290000E4305B6818464FF000014FF000024FF0D2
:1029100000038B0043EA9073820050465946FDF74E
:1029200057FC02460B46B34BA3FB02235B091E0177
:10293000D7F8E83018464FF0000102460B469418CD
:102940003C625B417B62D7E90823121841EB030329
:102950004FF000044FF00005DD0045EA5275D40049
:1029600022462B461418C7F8A8404B41C7F8AC3094
:10297000D7F8E4305B6818464FF000014FF00002D2
:102980004FF000038B0043EA90738200D7E92A01DD
:10299000FDF71EFC02460B46964BA3FB02135B0998
:1029A000642101FB03F3D31A1B013233914AA2FBCA
:1029B00003235B0903F0F0031E44D7F8E830184600
:1029C0004FF0000102460B469418BC615B41FB616D
:1029D000D7E90623121841EB03034FF000044FF030
:1029E0000005DD0045EA5275D40022462B46141836
:1029F000C7F8A0404B41C7F8A430D7F8E4305B6873
:102A000018464FF000014FF000024FF000038B001A
:102A100043EA90738200D7E92801FDF7D9FB02460B
:102A20000B46744BA3FB02135B09642101FB03F308
:102A3000D31A1B0132336F4AA2FB03235B0903F055
:102A40000F02D7F8E4301B6832449A60C9E0FEF701
:102A500045FEC7F8E800D7F8E8301C464FF00005FF
:102A600022462B46911839615B417B61D7E90423EB
:102A7000121945EB03034FF000004FF00001D9009D
:102A800041EA5271D00002460B4612EB040843EBB8
:102A90000509D7F8E4305B6818464FF000014FF0A5
:102AA00000024FF000038B0043EA9073820040461F
:102AB0004946FDF78DFB02460B464E4BA3FB022316
:102AC0005B091E01D7F8E83018464FF000010246B6
:102AD0000B469418BC605B41FB60D7E902231218D7
:102AE00041EB03034FF000044FF00005DD0045EA21
:102AF0005275D40022462B461418C7F898404B4113
:102B0000C7F89C30D7F8E4305B6818464FF00001F6
:102B10004FF000024FF000038B0043EA90738200F5
:102B2000D7E92601FDF754FB02460B46314BA3FBC8
:102B300002135B09642101FB03F3D31A1B01323337
:102B40002C4AA2FB03235B0903F0F0031E44D7F8D1
:102B5000E83018464FF0000102460B4694183C60DE
:102B60005B417B60D7E90023121841EB03034FF070
:102B700000044FF00005DD0045EA5275D4002246FE
:102B80002B461418C7F890404B41C7F89430D7F83B
:102B9000E4305B6818464FF000014FF000024FF040
:102BA00000038B0043EA90738200D7E92401FDF70C
:102BB0000FFB02460B460F4BA3FB02135B0964217C
:102BC00001FB03F3D31A1B0132330A4AA2FB03238E
:102BD0005B0903F00F02D7F8E4301B6832449A60B7
:102BE000FFE700BFF437BD46BDE8F08F001001409D
:102BF000001401401F85EB5180B485B000AFEFF3A6
:102C00000583BB60BB68002B0FD1EFF310837B60A3
:102C10007B68002B09D1114B1B68022B09D1EFF304
:102C200011833B603B68002B03D06FF00503FB6012
:102C30000CE00A4B1B68002B05D1084B01221A60DF
:102C40000023FB6002E04FF0FF33FB60FB68184697
:102C50001437BD465DF8047B704700BF300000208C
:102C600080B584B000AFEFF30583BB60BB68002B79
:102C70000FD1EFF310837B607B68002B09D1114BE0
:102C80001B68022B09D1EFF311833B603B68002BDB
:102C900003D06FF00503FB600EE00A4B1B68012BAD
:102CA00007D1084B02221A6001F0AAFC0023FB6046
:102CB00002E04FF0FF33FB60FB6818461037BD465B
:102CC00080BD00BF3000002080B592B004AFF86036
:102CD000B9607A6000237B61EFF305837B627B6AD6
:102CE000002B40F09480EFF310833B623B6A002B93
:102CF00040F08D80484B1B68022B06D1EFF3118307
:102D0000FB61FB69002B40F08280FB68002B7ED0CA
:102D100080233B631823FB620023FB7607F11B0330
:102D20007B634FF0FF33BB627B68002B45D07B6831
:102D30001B68002B02D07B681B687B637B689B69E8
:102D4000002B02D07B689B69FB62FB6A002B08D0DA
:102D5000FB6A382B05D87B685B6803F00103002B06
:102D600001D0002354E07B685B69002B03D07B68B3
:102D70005B699B083B637B689B68002B0ED07B687C
:102D8000DB685B2B0AD97B681B69002B06D07B684C
:102D90005B69002B02D00123BB6210E07B689B685B
:102DA000002B0CD17B68DB68002B08D17B681B698A
:102DB000002B04D10023BB6201E00023BB62BB6A8D
:102DC000012B10D17B681B697A689268029201938B
:102DD000FB6A0093BB683A6B796BF86801F044FAC0
:102DE00003467B6113E0BB6A002B10D13B6B9AB2A8
:102DF00007F114030193FB6A0093BB68796BF868D1
:102E000001F08EFA0346012B01D000237B617B6920
:102E100018463837BD4680BD3000002080B586B0EA
:102E200000AF7860EFF305833B613B69002B0FD166
:102E3000EFF31083FB60FB68002B09D10D4B1B687F
:102E4000022B09D1EFF31183BB60BB68002B03D0C9
:102E50006FF005037B6107E000237B617B68002B3B
:102E600002D0786801F098FB7B6918461837BD4698
:102E700080BD00BF3000002080B485B000AFF86096
:102E8000B9607A60FB68074A1A60BB68064A1A6034
:102E90007B6880221A6000BF1437BD465DF8047B52
:102EA000704700BF340000209000002080B485B03F
:102EB00000AFF860B9607A60FB68074A1A60BB68C7
:102EC000064A1A607B684FF480721A6000BF14379C
:102ED000BD465DF8047B704790020020EC020020A4
:102EE00080B483B000AF78607B6803F108027B6830
:102EF0005A607B684FF0FF329A607B6803F10802EA
:102F00007B68DA607B6803F108027B681A617B6882
:102F100000221A6000BF0C37BD465DF8047B704785
:102F200080B483B000AF78607B6800221A6100BF74
:102F30000C37BD465DF8047B704780B485B000AFA8
:102F4000786039607B685B68FB603B68FA685A6050
:102F5000FB689A683B689A60FB689B683A685A60AD
:102F6000FB683A689A603B687A681A617B681B68FC
:102F70005A1C7B681A6000BF1437BD465DF8047B9D
:102F8000704780B485B000AF786039603B681B68DB
:102F9000BB60BB68B3F1FF3F03D17B681B69FB607B
:102FA0000CE07B680833FB6002E0FB685B68FB6059
:102FB000FB685B681B68BA689A42F6D2FB685A687D
:102FC0003B685A603B685B683A689A603B68FA689D
:102FD0009A60FB683A685A603B687A681A617B6855
:102FE0001B685A1C7B681A6000BF1437BD465DF829
:102FF000047B704780B485B000AF78607B681B6944
:10300000FB607B685B687A6892689A607B689B6803
:103010007A6852685A60FB685B687A689A4203D1A2
:103020007B689A68FB685A607B6800221A61FB68BB
:103030001B685A1EFB681A60FB681B681846143729
:10304000BD465DF8047B704780B485B000AFF86082
:10305000B9607A60FB68043BFB60FB684FF08072EC
:103060001A60FB68043BFB60BB6823F00102FB684D
:103070001A60FB68043BFB600C4AFB681A60FB6843
:10308000143BFB607A68FB681A60FB68043BFB60DA
:10309000FB686FF002021A60FB68203BFB60FB6874
:1030A00018461437BD465DF8047B7047B130000800
:1030B00080B485B000AF00237B60124B1B68B3F176
:1030C000FF3F0AD04FF0500383F31188BFF36F8F97
:1030D000BFF34F8FFB6000BFFEE74FF0500383F359
:1030E0001188BFF36F8FBFF34F8FBB6000BF00BF6E
:1030F0007B68002BFCD000BF00BF1437BD465DF8D5
:10310000047B704708000020000000000000000061
:10311000074B19680868B0E8F04F80F30988BFF3DF
:103120006F8F4FF0000080F311887047AFF300807D
:103130004C43002000BF00BF08480068006880F3CF
:1031400008884FF0000080F3148862B661B6BFF3C0
:103150004F8FBFF36F8F00DF00BF00BF08ED00E0AF
:1031600080B586B000AF464B1B68464A93420AD1F1
:103170004FF0500383F31188BFF36F8FBFF34F8F6E
:103180003B6100BFFEE73E4B1B683F4A93420AD1BA
:103190004FF0500383F31188BFF36F8FBFF34F8F4E
:1031A000FB6000BFFEE7394B7B617B691B78DBB2BC
:1031B0007B607B69FF221A707B691B78DBB2FB7036
:1031C000FB78DBB203F05003DAB2314B1A70314BAB
:1031D00007221A6009E02F4B1B68013B2D4A136040
:1031E000FB78DBB25B00DBB2FB70FB78DBB203F099
:1031F0008003802BEFD0274B1B68C3F10703042B00
:103200000AD04FF0500383F31188BFF36F8FBFF3E1
:103210004F8FBB6000BFFEE71E4B1B681B021D4AA1
:1032200013601C4B1B6803F4E0631A4A13607B684D
:10323000DAB27B691A70184B1B68174A43F47003A3
:103240001360154B1B68144A43F07043136000F081
:10325000DDF8124B00221A6000F0FCF8104B1B68DE
:103260000F4A43F040431360FFF766FF01F0A8FBED
:10327000FFF71EFF002318461837BD4680BD00BF6C
:1032800000ED00E071C20F4170C20F4100E400E0A8
:10329000EC060020F006002020ED00E008000020F1
:1032A00034EF00E080B483B000AF4FF0500383F3FD
:1032B0001188BFF36F8FBFF34F8F7B6000BF0F4B41
:1032C0001B6801330D4A13600C4B1B68012B0FD197
:1032D0000B4B1B68DBB2002B0AD04FF0500383F37B
:1032E0001188BFF36F8FBFF34F8F3B6000BFFEE7C6
:1032F00000BF0C37BD465DF8047B70470800002016
:1033000004ED00E080B483B000AF124B1B68002BCB
:103310000AD14FF0500383F31188BFF36F8FBFF3CF
:103320004F8F7B6000BFFEE70A4B1B68013B094AD9
:103330001360084B1B68002B05D100233B603B68E2
:1033400083F3118800BF00BF0C37BD465DF8047BD6
:10335000704700BF080000200000000000000000CF
:10336000EFF30980BFF36F8F154B1A681EF0100F33
:1033700008BF20ED108A20E9F04F10602DE9090008
:103380004FF0500080F31188BFF34F8FBFF36F8F62
:1033900001F016FB4FF0000080F3118809BC19689A
:1033A0000868B0E8F04F1EF0100F08BFB0EC108AAC
:1033B00080F30988BFF36F8F704700BFAFF30080C1
:1033C0004C43002000BF00BF80B582B000AF4FF07B
:1033D000500383F31188BFF36F8FBFF34F8F7B6070
:1033E00000BF01F02FFA0346002B03D0064B4FF02D
:1033F00080521A6000233B603B6883F3118800BF52
:1034000000BF0837BD4680BD04ED00E080B400AFCA
:103410000B4B00221A600B4B00221A600A4B1B68F0
:103420000A4AA2FB03239B09094A013B1360044B90
:1034300007221A6000BFBD465DF8047B704700BFDD
:1034400010E000E018E000E00C000020D34D621016
:1034500014E000E0DFF80C00016841F47001016045
:10346000704700BF88ED00E080B485B000AFEFF397
:103470000583FB60FB680F2B14D9174AFB681344C4
:103480001B78FB72154B1B78FA7A9A420AD24FF0DE
:10349000500383F31188BFF36F8FBFF34F8F7B60AF
:1034A00000BFFEE70E4B1B6803F4E0620D4B1B6888
:1034B0009A420AD94FF0500383F31188BFF36F8FFC
:1034C000BFF34F8F3B6000BFFEE700BF1437BD4620
:1034D0005DF8047B704700BFF0E300E0EC060020DD
:1034E0000CED00E0F006002080B58AB000AF7860F7
:1034F0000023FB6101F0EAF8584B1B68002B01D157
:1035000000F010F9564B1A687B681340002B40F00E
:103510008E807B68002B1DD008227B6813447B6063
:103520007B6803F00703002B14D07B6823F00703AC
:1035300008337B607B6803F00703002B0AD04FF051
:10354000500383F31188BFF36F8FBFF34F8F7B61FD
:1035500000BFFEE77B68002B69D0424B1B687A688E
:103560009A4264D8404B3B623F4B1B687B6204E04D
:103570007B6A3B627B6A1B687B627B6A5B687A68FA
:103580009A4203D97B6A1B68002BF1D1334B1B682D
:103590007A6A9A424BD03B6A1B6808221344FB614B
:1035A0007B6A1A683B6A1A607B6A5A687B68D21A1F
:1035B00008235B009A421FD97A6A7B681344BB6177
:1035C000BB6903F00703002B0AD04FF0500383F3CD
:1035D0001188BFF36F8FBFF34F8F3B6100BFFEE7D2
:1035E0007B6A5A687B68D21ABB695A607B6A7A68C0
:1035F0005A60B86900F0F8F81A4B1A687B6A5B6881
:10360000D31A184A1360174B1A68184B1B689A4252
:1036100003D2144B1B68154A13607B6A5A68104B1F
:103620001B681A437B6A5A607B6A00221A6001F0A9
:103630005BF8FB6903F00703002B0AD04FF050033F
:1036400083F31188BFF36F8FBFF34F8FFB6000BF11
:10365000FEE7FB6918462837BD4680BDFC420020C6
:103660000843002000430020F442002004430020CF
:1036700080B586B000AF78607B687B617B68002B8B
:1036800048D008235B427A6913447B617B693B61C4
:103690003B695A68214B1B681340002B0AD14FF03D
:1036A000500383F31188BFF36F8FBFF34F8FFB601D
:1036B00000BFFEE73B691B68002B0AD04FF05003A8
:1036C00083F31188BFF36F8FBFF34F8FBB6000BFD1
:1036D000FEE73B695A68114B1B681340002B19D059
:1036E0003B691B68002B15D13B695A680B4B1B6863
:1036F000DB431A403B695A6000F0E8FF3B695A68B7
:10370000074B1B681344064A1360386900F06CF8D5
:1037100000F0EAFF00BF1837BD4680BD0843002017
:103720000043002080B485B000AF4FF47053BB60FD
:10373000274BFB60FB6803F00703002B0CD0FB68F2
:103740000733FB60FB6823F00703FB60BA68FB6884
:10375000D31A1F4A1344BB60FB687B601D4A7B6819
:1037600013601C4B00225A607B68BA681344FB60EC
:103770000822FB689B1AFB60FB6823F00703FB60D1
:10378000FB68154A1360144B1B6800225A60124BE9
:103790001B6800221A607B683B603B68FA68D21A9B
:1037A0003B685A600C4B1A683B681A603B685B6860
:1037B0000A4A13603B685B68094A1360094B4FF083
:1037C00000421A6000BF1437BD465DF8047B7047A5
:1037D000F4060020F4420020FC42002004430020B4
:1037E000004300200843002080B485B000AF78601B
:1037F000284BFB6002E0FB681B68FB60FB681B68F2
:103800007A689A42F7D8FB68BB60FB685B68BA6865
:1038100013447A689A4208D1FB685A687B685B68EF
:103820001A44FB685A60FB687B607B68BB607B68FE
:103830005B68BA681A44FB681B689A4218D1FB6837
:103840001A68154B1B689A420DD07B685A68FB6852
:103850001B685B681A447B685A60FB681B681A68BF
:103860007B681A6008E00C4B1A687B681A6003E0FA
:10387000FB681A687B681A60FA687B689A4202D013
:10388000FB687A681A6000BF1437BD465DF8047B98
:10389000704700BFF4420020FC42002080B584B095
:1038A00000AF786039607B68FB60FB68002B0AD151
:1038B0004FF0500383F31188BFF36F8FBFF34F8F27
:1038C000BB6000BFFEE7FFF7EDFCFB681A68FB6812
:1038D000DB6BF968096C01FB03F31A44FB685A605F
:1038E000FB6800229A63FB681A68FB689A60FB68B1
:1038F0001A68FB68DB6B013BF968096C01FB03F399
:103900001A44FB68DA60FB68FF2283F84420FB68F6
:10391000FF2283F845203B68002B14D1FB681B690C
:10392000002B1AD0FB681033184601F0F7F8034655
:10393000002B12D00C4B4FF080521A60BFF34F8F08
:10394000BFF36F8F09E0FB6810331846FFF7C8FA22
:10395000FB6824331846FFF7C3FAFFF7D3FC0123B3
:1039600018461037BD4680BD04ED00E080B58EB02E
:1039700002AFF860B9607A603B60FB68002B0AD147
:103980004FF0500383F31188BFF36F8FBFF34F8F56
:10399000BB6200BFFEE73B68002B0AD14FF050032B
:1039A00083F31188BFF36F8FBFF34F8F7B6200BF2C
:1039B000FEE77B68002B02D0BB68002B01D00123FF
:1039C00000E00023002B0AD14FF0500383F311884D
:1039D000BFF36F8FBFF34F8F3B6200BFFEE77B6883
:1039E000002B02D1BB68002B01D1012300E0002392
:1039F000002B0AD14FF0500383F31188BFF36F8F70
:103A0000BFF34F8FFB6100BFFEE750237B617B69F3
:103A1000502B0AD04FF0500383F31188BFF36F8F00
:103A2000BFF34F8FBB6100BFFEE73B68FB62FB6AE1
:103A3000002B0DD0FB6A012283F8462097F838202E
:103A4000FB6A009313467A68B968F86800F005F8D5
:103A5000FB6A18463037BD4680BD80B584B000AFE4
:103A6000F860B9607A60FB70BB68002B03D1BB695A
:103A7000BA691A6002E0BB697A681A60BB69FA68C1
:103A8000DA63BB69BA681A640121B869FFF706FFF7
:103A9000BB69FA7883F84C2000BF1037BD4680BD63
:103AA00080B58EB000AFF860B9607A603B600023EB
:103AB0007B63FB683B633B6B002B0AD14FF05003E9
:103AC00083F31188BFF36F8FBFF34F8FBB6200BFCB
:103AD000FEE7BB68002B03D13B6B1B6C002B01D1B5
:103AE000012300E00023002B0AD14FF0500383F3A1
:103AF0001188BFF36F8FBFF34F8F7B6200BFFEE76C
:103B00003B68022B03D13B6BDB6B012B01D1012303
:103B100000E00023002B0AD14FF0500383F31188FB
:103B2000BFF36F8FBFF34F8F3B6200BFFEE701F023
:103B3000B9F90346002B02D17B68002B01D1012388
:103B400000E00023002B0AD14FF0500383F31188CB
:103B5000BFF36F8FBFF34F8FFB6100BFFEE7FFF72F
:103B6000A1FB3B6B9A6B3B6BDB6B9A4202D33B68CE
:103B7000022B29D13A68B968386B00F007FAF8626D
:103B80003B6B5B6A002B10D03B6B2433184600F074
:103B9000C5FF0346002B13D03F4B4FF080521A60F5
:103BA000BFF34F8FBFF36F8F0AE0FB6A002B07D084
:103BB000394B4FF080521A60BFF34F8FBFF36F8FB6
:103BC000FFF7A0FB012363E07B68002B03D1FFF725
:103BD00099FB00235CE07B6B002B06D107F11403FB
:103BE000184600F0FFFF01237B63FFF78BFB00F01B
:103BF0006DFDFFF757FB3B6B93F844305BB2B3F1BD
:103C0000FF3F03D13B6B002283F844203B6B93F8CA
:103C100045305BB2B3F1FF3F03D13B6B002283F829
:103C20004520FFF76FFB3A1D07F1140311461846B4
:103C300000F0EEFF0346002B24D1386B00F09EFA13
:103C40000346002B18D03B6B10337A681146184698
:103C500000F014FF386B00F029FA00F045FD034630
:103C6000002B7FF47CAF0C4B4FF080521A60BFF3F7
:103C70004F8FBFF36F8F72E7386B00F017FA00F0C9
:103C800033FD6CE7386B00F011FA00F02DFD0023D6
:103C900018463837BD4680BD04ED00E080B58EB0D3
:103CA00000AFF860B9607A603B60FB683B633B6BD8
:103CB000002B0AD14FF0500383F31188BFF36F8FAD
:103CC000BFF34F8F7B6200BFFEE7BB68002B03D1C1
:103CD0003B6B1B6C002B01D1012300E00023002B68
:103CE0000AD14FF0500383F31188BFF36F8FBFF3F6
:103CF0004F8F3B6200BFFEE73B68022B03D13B6B5B
:103D0000DB6B012B01D1012300E00023002B0AD142
:103D10004FF0500383F31188BFF36F8FBFF34F8FC2
:103D2000FB6100BFFEE7FFF79FFBEFF311824FF04F
:103D3000500383F31188BFF36F8FBFF34F8FBA61C6
:103D40007B61BB69FB623B6B9A6B3B6BDB6B9A42A3
:103D500002D33B68022B2CD13B6B93F8453087F89C
:103D60002B303A68B968386B00F010F997F92B30AE
:103D7000B3F1FF3F12D13B6B5B6A002B16D03B6B5C
:103D80002433184600F0CAFE0346002B0ED07B6891
:103D9000002B0BD07B6801221A6007E097F82B30CC
:103DA0000133DBB25AB23B6B83F8452001237B63BE
:103DB00001E000237B63FB6A3B613B6983F311886D
:103DC00000BF7B6B18463837BD4680BD80B58CB0D0
:103DD00000AFF860B9607A600023FB62FB68BB62E9
:103DE000BB6A002B0AD14FF0500383F31188BFF355
:103DF0006F8FBFF34F8F3B6200BFFEE7BB68002BA6
:103E000003D1BB6A1B6C002B01D1012300E000230E
:103E1000002B0AD14FF0500383F31188BFF36F8F4B
:103E2000BFF34F8FFB6100BFFEE701F03BF8034695
:103E3000002B02D17B68002B01D1012300E000237D
:103E4000002B0AD14FF0500383F31188BFF36F8F1B
:103E5000BFF34F8FBB6100BFFEE7FFF723FABB6ADA
:103E60009B6B7B627B6A002B1FD0B968B86A00F03D
:103E7000F7F87B6A5A1EBB6A9A63BB6A1B69002B00
:103E80000FD0BB6A1033184600F048FE0346002BE3
:103E900007D03D4B4FF080521A60BFF34F8FBFF3F6
:103EA0006F8FFFF72FFA012369E07B68002B03D1A6
:103EB000FFF728FA002362E0FB6A002B06D107F126
:103EC0001003184600F08EFE0123FB62FFF71AFA7A
:103ED00000F0FCFBFFF7E6F9BB6A93F844305BB2F5
:103EE000B3F1FF3F03D1BB6A002283F84420BB6AD1
:103EF00093F845305BB2B3F1FF3F03D1BB6A0022B8
:103F000083F84520FFF7FEF93A1D07F1100311462B
:103F1000184600F07DFE0346002B23D1B86A00F05E
:103F200017F90346002B17D0BB6A24337A68114671
:103F3000184600F0A3FDB86A00F0B8F800F0D4FB12
:103F40000346002B89D1104B4FF080521A60BFF30B
:103F50004F8FBFF36F8F80E7B86A00F0A7F800F0CB
:103F6000C3FB7AE7B86A00F0A1F800F0BDFBB86ABD
:103F700000F0EEF80346002B3FF46FAF0023184625
:103F80003037BD4680BD00BF04ED00E080B586B08F
:103F900000AFF860B9607A6000237B61FB689B6BBF
:103FA0003B61FB681B6C002B0DD1FB681B68002B71
:103FB0004DD1FB685B68184600F092FF7861FB68A2
:103FC00000225A6043E07B68002B19D1FB68986897
:103FD000FB681B6C1A46B96802F094F8FB689A6893
:103FE000FB681B6C1A44FB689A60FB689A68FB6864
:103FF0005B689A422BD3FB681A68FB689A6026E0DC
:10400000FB68D868FB681B6C1A46B96802F07AF83E
:10401000FB68DA68FB681B6C5B421A44FB68DA6079
:10402000FB68DA68FB681B689A4207D2FB685A682B
:10403000FB681B6C5B421A44FB68DA607B68022BEE
:1040400005D13B69002B02D03B69013B3B613B69D9
:104050005A1CFB689A637B6918461837BD4680BDB9
:1040600080B582B000AF786039607B681B6C002B34
:1040700018D07B68DA687B681B6C1A447B68DA604E
:104080007B68DA687B685B689A4203D37B681A684E
:104090007B68DA607B68D9687B681B6C1A46386875
:1040A00002F030F800BF0837BD4680BD80B584B04F
:1040B00000AF7860FFF7F6F87B6893F84530FB7344
:1040C00011E07B685B6A002B12D07B6824331846B2
:1040D00000F024FD0346002B01D000F0FBFDFB7B2C
:1040E000013BDBB2FB7397F90F30002BE9DC00E0FA
:1040F00000BF7B68FF2283F84520FFF703F9FFF735
:10410000D1F87B6893F84430BB7311E07B681B697E
:10411000002B12D07B681033184600F0FFFC0346DA
:10412000002B01D000F0D6FDBB7B013BDBB2BB73A3
:1041300097F90E30002BE9DC00E000BF7B68FF221E
:1041400083F84420FFF7DEF800BF1037BD4680BD7E
:1041500080B584B000AF7860FFF7A4F87B689B6BF4
:10416000002B02D10123FB6001E00023FB60FFF77D
:10417000C9F8FB6818461037BD4680BD80B584B0CD
:1041800000AF7860FFF78EF87B689A6B7B68DB6B1B
:104190009A4202D10123FB6001E00023FB60FFF79C
:1041A000B1F8FB6818461037BD4680BD80B485B0B5
:1041B00000AF786039600023FB6014E00F4AFB68B1
:1041C00052F83330002B0BD10C49FB683A6841F8A8
:1041D00033200A4AFB68DB0013447A685A6006E021
:1041E000FB680133FB60FB68072BE7D900BF00BF0A
:1041F0001437BD465DF8047B704700BF0C430020B8
:1042000080B586B000AFF860B9607A60FB687B610A
:10421000FFF748F87B6993F844305BB2B3F1FF3F96
:1042200003D17B69002283F844207B6993F84530F1
:104230005BB2B3F1FF3F03D17B69002283F84520D5
:10424000FFF760F87B699B6B002B06D17B692433F9
:104250007A68B968184600F035FC7869FFF726FFE0
:1042600000BF1837BD4680BD80B58EB004AFF86082
:10427000B9607A603B607B6B002B0AD14FF0500332
:1042800083F31188BFF36F8FBFF34F8F3B6200BF83
:10429000FEE7BB6B002B0AD14FF0500383F311886C
:1042A000BFF36F8FBFF34F8FFB6100BFFEE75C234F
:1042B0003B613B695C2B0AD04FF0500383F31188BC
:1042C000BFF36F8FBFF34F8FBB6100BFFEE7BB6BC8
:1042D000002B1ED07B6B002B1BD0BB6B7B627B6AE1
:1042E0007A6B1A637B6A022283F8592000230393B6
:1042F0007B6A029307F1140301933B6B00933B68C5
:104300007A68B968F86800F050F8786A00F0D4F874
:1043100001E000237B617B6918462837BD4680BDDC
:1043200080B58CB004AFF860B9603B601346FB8089
:10433000FB889B001846FFF7D7F878617B69002B54
:104340000ED05C20FFF7D0F8F861FB69002B03D09A
:10435000FB697A691A6305E07869FFF789F901E07A
:104360000023FB61FB69002B17D0FB69002283F857
:104370005920FA8800230393FB690293FB6A019397
:10438000BB6A00933B68B968F86800F00EF8F869FA
:1043900000F092F80123BB6102E04FF0FF33BB61F4
:1043A000BB6918462037BD4680BD80B588B000AFD8
:1043B000F860B9607A603B603B6B186B7B689B0070
:1043C0001A46A52101F0ACFE3B6B1A6B7B6803F12A
:1043D0008043013B9B001344BB61BB6923F007038F
:1043E000BB61BB6903F00703002B0AD04FF05003F9
:1043F00083F31188BFF36F8FBFF34F8F7B6100BFD3
:10440000FEE70023FB6112E0BA68FB6913441978E8
:104410003A6BFB69134434330A461A70BA68FB6975
:1044200013441B78002B06D0FB690133FB61FB6949
:104430000F2BE9D900E000BF3B6B002283F843203B
:10444000BB6A372B01D93723BB623B6BBA6ADA628E
:104450003B6BBA6ADA643B6B00221A653B6B043330
:104460001846FEF75DFD3B6B18331846FEF758FD06
:104470003B6B3A6B1A61BB6AC3F138023B6B9A61C2
:104480003B6B3A6B5A623B6B00225A653B6B0022D6
:1044900083F858203A68F968B869FEF7D5FD0246F6
:1044A0003B6B1A60FB6A002B02D0FB6A3A6B1A6006
:1044B00000BF2037BD4680BD80B582B000AF7860B8
:1044C000FEF7F0FE2D4B1B6801332C4A13602C4B7A
:1044D0001B68002B09D12A4A7B681360274B1B6895
:1044E000012B10D100F01AFC0DE0264B1B68002BAD
:1044F00009D1234B1B68DA6A7B68DB6A9A4202D8CF
:104500001F4A7B681360204B1B6801331E4A1360EF
:104510001D4B1A687B685A647B68DA6A1B4B1B6800
:104520009A4203D97B68DB6A184A13607B68DA6AAF
:1045300013469B0013449B00154A1A447B680433BE
:1045400019461046FEF7F9FCFEF7DCFE0D4B1B6822
:10455000002B0ED00A4B1B68DA6A7B68DB6A9A4232
:1045600007D20C4B4FF080521A60BFF34F8FBFF34E
:104570006F8F00BF0837BD4680BD00BF20480020B8
:104580004C4300202C4800203C48002028480020B4
:104590005043002004ED00E080B584B000AF7860A7
:1045A0000023FB607B68002B17D0134B1B68002B8C
:1045B0000AD04FF0500383F31188BFF36F8FBFF31E
:1045C0004F8FBB6000BFFEE700F080F800217868E5
:1045D00000F0F4FC00F088F8F860FB68002B07D1CD
:1045E000064B4FF080521A60BFF34F8FBFF36F8FAF
:1045F00000BF1037BD4680BD4848002004ED00E0F4
:1046000080B58AB004AF0023BB6000237B603A46CC
:10461000391D07F108031846FEF72EFC39687B6840
:10462000BA68029201930023009300230A462149AD
:104630002148FFF719FE0346204A13601F4B1B68F1
:10464000002B02D001237B6101E000237B617B69A9
:10465000012B02D100F006FD78617B69012B16D198
:104660004FF0500383F31188BFF36F8FBFF34F8F69
:104670003B6100BF124B4FF0FF321A60114B012219
:104680001A60114B00221A60FEF76AFD0EE07B698A
:10469000B3F1FF3F0AD14FF0500383F31188BFF30A
:1046A0006F8FBFF34F8FFB6000BFFEE700BF18376F
:1046B000BD4680BD48610008ED4C0008444800201C
:1046C000404800202C4800202448002080B400AF3F
:1046D000044B1B680133034A136000BFBD465DF8FD
:1046E000047B70474848002080B584B000AF0023A9
:1046F000FB600023BB60424B1B68002B0AD14FF0CC
:10470000500383F31188BFF36F8FBFF34F8F3B606C
:1047100000BFFEE7FEF7C6FD394B1B68013B384A78
:104720001360374B1B68002B62D1364B1B68002B84
:104730005ED02FE0344BDB68DB68FB60FB6818332E
:104740001846FEF757FCFB6804331846FEF752FC88
:10475000FB68DA6A2D4B1B689A4203D9FB68DB6A57
:104760002A4A1360FB68DA6A13469B0013449B00D5
:10477000274A1A44FB68043319461046FEF7DDFB4E
:10478000FB68DA6A234B1B68DB6A9A4202D3224B2E
:1047900001221A601C4B1B68002BCBD1FB68002B3D
:1047A00001D000F059FB1D4B1B687B607B68002B20
:1047B00010D000F047F80346002B02D0164B012220
:1047C0001A607B68013B7B607B68002BF1D1134B47
:1047D00000221A60104B1B68002B09D00123BB601C
:1047E0000F4B4FF080521A60BFF34F8FBFF36F8FA4
:1047F000FEF788FDBB6818461037BD4680BD00BF78
:104800004848002020480020E04700202848002099
:10481000504300204C430020344800203048002002
:1048200004ED00E080B483B000AF054B1B687B60F3
:104830007B6818460C37BD465DF8047B704700BFA7
:104840002448002080B586B000AF00237B61514B27
:104850001B68002B40F08E804F4B1B6801333B617F
:104860004D4A3B6913603B69002B20D14B4B1B68C1
:104870001B68002B0AD04FF0500383F31188BFF35D
:104880006F8FBFF34F8F3B6000BFFEE7434B1B684A
:10489000FB60434B1B68414A1360414AFB6813604D
:1048A000404B1B6801333F4A136000F0D5FA3E4B82
:1048B0001B683A699A424ED3384B1B681B68002B21
:1048C00001D1012300E00023002B04D0364B4FF030
:1048D000FF321A603FE0314B1B68DB68DB68BB606E
:1048E000BB685B687B603A697B689A4203D22E4A58
:1048F0007B6813602FE0BB6804331846FEF77AFB31
:10490000BB689B6A002B04D0BB6818331846FEF7BF
:1049100071FBBB68DA6A254B1B689A4203D9BB68F6
:10492000DB6A224A1360BB68DA6A13469B001344B1
:104930009B001F4A1A44BB68043319461046FEF711
:10494000FCFABB68DA6A1B4B1B68DB6A9A42B3D37A
:1049500001237B61B0E7174B1B68DA6A14491346E1
:104960009B0013449B000B441B68012B07D90123B8
:104970007B6104E0104B1B6801330F4A13600F4B3F
:104980001B68002B01D001237B617B691846183717
:10499000BD4680BD4848002024480020D84700205C
:1049A000DC470020384800204048002028480020EC
:1049B000504300204C430020304800203448002061
:1049C00080B485B000AF284B1B68002B03D0274B69
:1049D00001221A6041E0254B00221A60244B1B681B
:1049E000FB6010E0FB68002B0AD14FF0500383F30B
:1049F0001188BFF36F8FBFF34F8F7B6000BFFEE75F
:104A0000FB68013BFB601B49FA6813469B0013449B
:104A10009B000B441B68002BE4D0FA6813469B00F4
:104A200013449B00134A1344BB60BB685B685A681D
:104A3000BB685A60BB685A68BB6808339A4204D1A5
:104A4000BB685B685A68BB685A60BB685B68DB68B8
:104A5000094A1360064AFB68136000BF1437BD465D
:104A60005DF8047B704700BF4848002034480020B0
:104A700028480020504300204C43002080B584B0DB
:104A800000AF786039607B68002B0AD14FF050038B
:104A900083F31188BFF36F8FBFF34F8FFB6000BFAD
:104AA000FEE7074B1B68183319467868FEF769FA6A
:104AB0000121386800F082FA00BF1037BD4680BD82
:104AC0004C43002080B586B000AFF860B9607A60D2
:104AD000FB68002B0AD14FF0500383F31188BFF31A
:104AE0006F8FBFF34F8F7B6100BFFEE70A4B1B68E0
:104AF00018331946F868FEF720FA7B68002B02D0BD
:104B00004FF0FF33BB607968B86800F057FA00BF18
:104B10001837BD4680BD00BF4C43002080B586B02D
:104B200000AF78607B68DB68DB683B613B69002B2A
:104B30000AD14FF0500383F31188BFF36F8FBFF397
:104B40004F8FFB6000BFFEE73B6918331846FEF746
:104B500051FA1E4B1B68002B1DD13B6904331846CC
:104B6000FEF748FA3B69DA6A194B1B689A4203D987
:104B70003B69DB6A164A13603B69DA6A13469B009D
:104B800013449B00134A1A443B69043319461046E8
:104B9000FEF7D3F905E03B69183319460E48FEF7D6
:104BA000CCF93B69DA6A0D4B1B68DB6A9A4205D97E
:104BB00001237B610A4B01221A6001E000237B6123
:104BC0007B6918461837BD4680BD00BF48480020A5
:104BD0002848002050430020E04700204C4300209C
:104BE0003448002080B483B000AF7860064B1A6868
:104BF0007B681A60054B1A687B685A6000BF0C37E7
:104C0000BD465DF8047B70473848002024480020EA
:104C100080B588B000AF786039607B68002B0AD11E
:104C20004FF0500383F31188BFF36F8FBFF34F8FA3
:104C30003B6100BFFEE73B68002B0AD14FF05003F9
:104C400083F31188BFF36F8FBFF34F8FFB6000BFFB
:104C5000FEE7FEF727FB1D4B1B68BB617B685B68AB
:104C6000BA69D31A7B613B681B68B3F1FF3F02D17D
:104C70000023FB6123E07B681A68154B1B689A428E
:104C800007D07B685B68BA699A4202D30123FB6153
:104C900015E03B681B687A699A420BD23B681A6838
:104CA0007B69D21A3B681A607868FFF79BFF002384
:104CB000FB6104E03B6800221A600123FB61FEF700
:104CC00021FBFB6918462037BD4680BD24480020E3
:104CD0003848002080B400AF034B01221A6000BFA7
:104CE000BD465DF8047B70473448002080B582B033
:104CF00000AF786000F052F8064B1B68012BF9D921
:104D0000054B4FF080521A60BFF34F8FBFF36F8F88
:104D1000F0E700BF5043002004ED00E080B582B012
:104D200000AF00237B600CE07A6813469B001344BD
:104D30009B00124A13441846FEF7D2F87B680133F1
:104D40007B607B68372BEFD90D48FEF7C9F80D481B
:104D5000FEF7C6F80C48FEF7C3F80C48FEF7C0F89B
:104D60000B48FEF7BDF80B4B054A1A600A4B054A83
:104D70001A6000BF0837BD4680BD00BF5043002009
:104D8000B0470020C4470020E0470020F44700203F
:104D90000C480020D8470020DC47002080B582B0B6
:104DA00000AF19E0FEF77EFA104BDB68DB687B6032
:104DB0007B6804331846FEF71DF90D4B1B68013B59
:104DC0000B4A13600B4B1B68013B0A4A1360FEF74A
:104DD00099FA786800F010F8064B1B68002BE1D1B7
:104DE00000BF00BF0837BD4680BD00BFF4470020AC
:104DF000204800200848002080B584B000AF7860CB
:104E00007B6893F85930002B08D17B681B6B1846E0
:104E1000FEF72EFC7868FEF72BFC18E07B6893F811
:104E20005930012B03D17868FEF722FC0FE07B6834
:104E300093F85930022B0AD04FF0500383F31188B6
:104E4000BFF36F8FBFF34F8FFB6000BFFEE700BF64
:104E50001037BD4680BD000080B483B000AF0F4B5B
:104E60001B681B68002B01D1012300E00023002BED
:104E700004D00B4B4FF0FF321A6008E0074B1B6861
:104E8000DB68DB687B607B685B68054A136000BF9A
:104E90000C37BD465DF8047B704700BFD847002043
:104EA0004048002080B483B000AF0B4B1B68002B40
:104EB00002D101237B6008E0084B1B68002B02D164
:104EC00002237B6001E000237B607B6818460C377F
:104ED000BD465DF8047B70472C4800204848002000
:104EE00080B586B000AF78607B683B6100237B6152
:104EF0007B68002B56D02E4B1B683A699A420AD029
:104F00004FF0500383F31188BFF36F8FBFF34F8FC0
:104F1000FB6000BFFEE73B691B6D002B0AD14FF021
:104F2000500383F31188BFF36F8FBFF34F8FBB60C4
:104F300000BFFEE73B691B6D5A1E3B691A653B6962
:104F4000DA6A3B69DB6C9A422CD03B691B6D002B03
:104F500028D13B6904331846FEF74CF83B69DA6CFC
:104F60003B69DA623B69DB6AC3F138023B699A61EB
:104F70003B69DA6A0F4B1B689A4203D93B69DB6ACB
:104F80000C4A13603B69DA6A13469B0013449B008A
:104F9000094A1A443B69043319461046FDF7CDFF10
:104FA00001237B617B6918461837BD4680BD00BF71
:104FB0004C430020284800205043002080B584B096
:104FC00000AF78603960214B1B68FB60204B1B6889
:104FD00004331846FEF70EF87B68B3F1FF3F0AD1A1
:104FE0003B68002B07D01A4B1B680433194619483D
:104FF000FDF7A3FF26E0FA687B681344BB60144BFF
:105000001B68BA685A60BA68FB689A4209D2124BA8
:105010001A680F4B1B68043319461046FDF7B1FFA1
:1050200010E00E4B1A680A4B1B68043319461046F1
:10503000FDF7A7FF0A4B1B68BA689A4202D2084ADA
:10504000BB68136000BF1037BD4680BD24480020F8
:105050004C4300200C480020DC470020D8470020AB
:105060004048002080B58AB004AF00237B6100F087
:10507000CBFA1C4B1B68002B21D00023FB600023C4
:10508000BB603A1D07F1080107F10C031846FDF754
:105090000DFF7968BB68FA680292019302230093BE
:1050A00000230A4610491148FFF7DEF80346104A6C
:1050B00013600F4B1B68002B01D001237B617B69C0
:1050C000002B0AD14FF0500383F31188BFF36F8F89
:1050D000BFF34F8F3B6100BFFEE77B69184618376F
:1050E000BD4680BD7C480020506100081152000878
:1050F0008048002080B58AB000AFF860B9607A605F
:105100003B6000237B62FB68002B0AD14FF0500309
:1051100083F31188BFF36F8FBFF34F8F3B6200BFE4
:10512000FEE71A4B1B68002B2AD0BB683B617B68EB
:105130007B61FB68BB61BB68052B18DCFFF7B2FE27
:105140000346022B09D1114B186807F11001002307
:105150003A6BFEF7A5FC786212E00C4B186807F179
:10516000100100230022FEF79BFC786208E0074B49
:10517000186807F1100100233A68FEF78FFD786286
:105180007B6A18462837BD4680BD00BF7C4800209A
:1051900080B588B002AF786039601C4B1B68DB6853
:1051A000DB687B617B6904331846FDF723FF7B696D
:1051B000DB69012B22D17B699A697B68D1187B68F6
:1051C0003A68786900F0C8F80346002B16D000232F
:1051D000009300237A6800217869FFF78BFF38611C
:1051E0003B69002B0AD14FF0500383F31188BFF3C2
:1051F0006F8FBFF34F8FFB6000BFFEE77B695B6A79
:105200007869984700BF1837BD4680BD74480020B4
:1052100080B584B000AF786007F10803184600F04D
:1052200057F8F860BB681946F86800F003F800F01A
:10523000D5F8F1E780B584B000AF78603960FFF74A
:1052400045FA07F10803184600F066F8F860BB68F5
:10525000002B30D13B68002B0AD17A68FB689A4258
:1052600006D8FFF741FAF9687868FFF791FF24E064
:105270003B68002B08D0134B1B681B68002B0CBF2E
:1052800001230023DBB23B600F4B18687A68FB6890
:10529000D31A3A681946FEF7B3FFFFF725FA03461B
:1052A000002B0AD1094B4FF080521A60BFF34F8F89
:1052B000BFF36F8F01E0FFF717FA00BF1037BD464D
:1052C00080BD00BF784800207C48002004ED00E04D
:1052D00080B485B000AF78600E4B1B681B68002B54
:1052E0000CBF01230023DBB21A467B681A607B687F
:1052F0001B68002B05D1074B1B68DB681B68FB6034
:1053000001E00023FB60FB6818461437BD465DF8DA
:10531000047B70477448002080B584B000AF78608B
:10532000FFF780FAF8600B4B1B68FA689A4205D2C7
:1053300000F008F97B6801221A6002E07B68002215
:105340001A60044AFB681360FB6818461037BD46B4
:1053500080BD00BF8448002080B586B000AFF860F3
:10536000B9607A603B6000237B61FB68BA685A6071
:10537000FB68FA681A61BA687B689A4212D87A6840
:105380003B68D21AFB689B699A4202D301237B6176
:105390001BE0104B1A68FB68043319461046FDF7F2
:1053A000F0FD12E07A683B689A4206D2BA683B6820
:1053B0009A4202D301237B6107E0074B1A68FB681E
:1053C000043319461046FDF7DCFD7B691846183793
:1053D000BD4680BD784800207448002080B58EB05E
:1053E00002AF9DE07B68002B18DA3B1D0433FB62A3
:1053F000FB6A002B0AD14FF0500383F31188BFF3EF
:105400006F8FBFF34F8FFB6100BFFEE7FB6A1B6826
:10541000FA6A5068FA6A9268114698477B68002BCE
:105420007DDBFB68BB62BB6A5B69002B04D0BB6A97
:1054300004331846FDF7DEFD3B461846FFF76CFFC8
:1054400078627B68092B6BD801A252F823F000BF69
:10545000795400087954000879540008215500084F
:10546000D55400080D5500087954000879540008F7
:1054700021550008D5540008BA68BB6A9B69D11849
:10548000BB687A6AB86AFFF767FF0346002B47D00C
:10549000BB6A5B6AB86A9847BB6ADB69012B3FD17C
:1054A000BA68BB6A9B691A44002300930023002159
:1054B000B86AFFF71FFE38623B6A002B30D14FF00D
:1054C000500383F31188BFF36F8FBFF34F8FBB611E
:1054D00000BFFEE7BA68BB6A9A61BB6A9B69002B92
:1054E0000AD14FF0500383F31188BFF36F8FBFF3DE
:1054F0004F8F7B6100BFFEE7BB6A9A697B6AD11858
:105500007B6A7A6AB86AFFF727FF09E0BB6A93F8FB
:105510002C30002B04D1B86AFEF7AAF800E000BFD7
:10552000074B1B68391D00221846FEF74FFC034647
:10553000002B7FF457AF00BF00BF3037BD4680BDA2
:105540007C48002080B588B002AF45E02C4B1B683A
:10555000DB681B683B612A4B1B68DB68DB68FB6010
:10556000FB6804331846FDF745FDFB685B6AF86885
:105570009847FB68DB69012B2ED1FB689B693A6970
:105580001344BB60BA683B699A420ED9FB68BA689B
:105590005A60FB68FA681A61194B1A68FB68043391
:1055A00019461046FDF7EDFC16E00023009300239A
:1055B0003A690021F868FFF79DFD78607B68002B51
:1055C0000AD14FF0500383F31188BFF36F8FBFF3FD
:1055D0004F8F3B6000BFFEE7094B1B681B68002B29
:1055E000B4D1074B1B687B61064B1B68044A1360F0
:1055F000044A7B69136000BF1837BD4680BD00BFF9
:10560000744800207848002080B582B002AFFDF7D2
:1056100049FE154B1B68002B20D11448FDF760FC98
:105620001348FDF75DFC134B104A1A60124B104AE9
:105630001A6000230093114B114A10210A20FEF733
:1056400095F90346084A1360074B1B68002B05D0E9
:10565000054B1B680B491846FEF7A8FDFDF752FEE7
:1056600000BFBD4680BD00BF7C4800204C480020E4
:105670006048002074480020784800202849002015
:10568000884800205861000880B500AF174B184AC1
:105690001A60164B09225A60144B00229A60134B71
:1056A0000022DA60114B4FF480221A610F4B4FF445
:1056B00040125A610D4B00221A760C4B00225A768A
:1056C0000A4B00229A76094B0022DA76074B002219
:1056D0001A77064B00225A770448FAF7F5FD03467D
:1056E000002B01D000F0CEF900BF80BD784900202A
:1056F0000064004080B58AB000AF786007F1140301
:1057000000221A605A609A60DA601A617B681B682E
:10571000294A93424CD100233B61284B1B6C274AFA
:1057200043F000731364254B1B6C03F000733B6163
:105730003B690023FB60214B1B6B204A43F00103B4
:1057400013631E4B1B6B03F00103FB60FB684FF4FC
:10575000C0537B610223BB610023FB6103233B62D7
:1057600009237B6207F1140319461548FBF7ACFCCB
:10577000002205211320FBF793F91320FBF7ACF966
:10578000002205211420FBF78BF91420FBF7A4F964
:10579000002205211520FBF783F91520FBF79CF962
:1057A000002205211620FBF77BF91620FBF794F960
:1057B00000BF2837BD4680BD00640040003802406D
:1057C0000000024080B582B000AF00237B600C4B2C
:1057D0001B6B0B4A43F400131363094B1B6B03F45D
:1057E00000137B607B68002205211120FBF758F92C
:1057F0001120FBF771F900BF0837BD4680BD00BF1F
:105800000038024080B592B000AFFDF7F5F907F11E
:10581000240324220021184600F082FC144B7B62F2
:105820008023BB631823FB6307F124031A4600217E
:105830001048FDF749FA03460F4A13603B462422FD
:105840000021184600F06CFC0C4B3B6080237B6110
:105850000823BB613B461A4600210948FDF734FA8C
:105860000346084A136000BF4837BD4680BD00BFED
:105870006061000889580008A04900206C61000898
:1058800099580008A449002080B582B000AF786024
:105890000120FDF7C3FAFBE780B582B000AF786066
:1058A000C820FDF7BBFA20210148FBF7BAFDF7E756
:1058B0000000024080B588B000AF07F10C03002261
:1058C0001A605A609A60DA601A610023BB601F4B4D
:1058D0001B6B1E4A43F0040313631C4B1B6B03F04A
:1058E0000403BB60BB6800237B60184B1B6B174A2B
:1058F00043F080031363154B1B6B03F080037B6045
:105900007B6800233B60114B1B6B104A43F0010383
:1059100013630E4B1B6B03F001033B603B680022DB
:1059200020210B48FBF764FD2023FB6001233B6132
:1059300000237B610023BB6107F10C031946044877
:10594000FBF7C2FB00BF2037BD4680BD00380240D8
:105950000000024080B500AFFAF774FC00F00EF8CA
:10596000FFF7A8FFFFF790FE00F086F9FFF72AFF88
:10597000FFF748FFFDF774F9FEE7000080B594B02B
:1059800000AF07F11C0334220021184600F0C8FBC9
:1059900007F1080300221A605A609A60DA601A61FF
:1059A00000237B602C4B1B6C2B4A43F08053136409
:1059B000294B1B6C03F080537B607B6800233B60AA
:1059C000264B1B68254A43F440431360234B1B6856
:1059D00003F440433B603B680123FB614FF4803399
:1059E0003B6202237B634FF48003BB630423FB63AE
:1059F000B4233B6402237B640223BB640223FB6465
:105A000007F11C031846FCF775F80346002B01D07C
:105A100000F038F8FBF720FD0346002B01D000F022
:105A200031F80F23BB600223FB6000233B614FF47E
:105A3000A0537B614FF48053BB6107F1080305213C
:105A40001846FBF759FD0346002B01D000F01AF869
:105A500000BF5037BD4680BD003802400070004096
:105A600080B582B000AF78607B681B68044A9342BF
:105A700001D1FAF709FC00BF0837BD4680BD00BF61
:105A80000000014080B400AF00BFBD465DF8047B5C
:105A90007047000080B582B000AF00237B60124BDE
:105AA0005B6C114A43F4804353640F4B5B6C03F40B
:105AB00080437B607B6800233B600B4B1B6C0A4A76
:105AC00043F080531364084B1B6C03F080533B601E
:105AD0003B6800220F216FF00100FAF7E1FF00BFE1
